{
  "_format": "hh-sol-artifact-1",
  "contractName": "Elevated_Yacht_Club",
  "sourceName": "contracts/contract.sol",
  "abi": [
    {
      "inputs": [],
      "stateMutability": "nonpayable",
      "type": "constructor"
    },
    {
      "anonymous": false,
      "inputs": [
        {
          "indexed": true,
          "internalType": "address",
          "name": "account",
          "type": "address"
        },
        {
          "indexed": true,
          "internalType": "address",
          "name": "operator",
          "type": "address"
        },
        {
          "indexed": false,
          "internalType": "bool",
          "name": "approved",
          "type": "bool"
        }
      ],
      "name": "ApprovalForAll",
      "type": "event"
    },
    {
      "anonymous": false,
      "inputs": [
        {
          "indexed": true,
          "internalType": "address",
          "name": "previousOwner",
          "type": "address"
        },
        {
          "indexed": true,
          "internalType": "address",
          "name": "newOwner",
          "type": "address"
        }
      ],
      "name": "OwnershipTransferred",
      "type": "event"
    },
    {
      "anonymous": false,
      "inputs": [
        {
          "indexed": true,
          "internalType": "address",
          "name": "operator",
          "type": "address"
        },
        {
          "indexed": true,
          "internalType": "address",
          "name": "from",
          "type": "address"
        },
        {
          "indexed": true,
          "internalType": "address",
          "name": "to",
          "type": "address"
        },
        {
          "indexed": false,
          "internalType": "uint256[]",
          "name": "ids",
          "type": "uint256[]"
        },
        {
          "indexed": false,
          "internalType": "uint256[]",
          "name": "values",
          "type": "uint256[]"
        }
      ],
      "name": "TransferBatch",
      "type": "event"
    },
    {
      "anonymous": false,
      "inputs": [
        {
          "indexed": true,
          "internalType": "address",
          "name": "operator",
          "type": "address"
        },
        {
          "indexed": true,
          "internalType": "address",
          "name": "from",
          "type": "address"
        },
        {
          "indexed": true,
          "internalType": "address",
          "name": "to",
          "type": "address"
        },
        {
          "indexed": false,
          "internalType": "uint256",
          "name": "id",
          "type": "uint256"
        },
        {
          "indexed": false,
          "internalType": "uint256",
          "name": "value",
          "type": "uint256"
        }
      ],
      "name": "TransferSingle",
      "type": "event"
    },
    {
      "anonymous": false,
      "inputs": [
        {
          "indexed": false,
          "internalType": "string",
          "name": "value",
          "type": "string"
        },
        {
          "indexed": true,
          "internalType": "uint256",
          "name": "id",
          "type": "uint256"
        }
      ],
      "name": "URI",
      "type": "event"
    },
    {
      "inputs": [],
      "name": "FOUNDER",
      "outputs": [
        {
          "internalType": "uint256",
          "name": "",
          "type": "uint256"
        }
      ],
      "stateMutability": "view",
      "type": "function"
    },
    {
      "inputs": [
        {
          "internalType": "address",
          "name": "account",
          "type": "address"
        },
        {
          "internalType": "uint256",
          "name": "id",
          "type": "uint256"
        },
        {
          "internalType": "uint256",
          "name": "amount",
          "type": "uint256"
        }
      ],
      "name": "Mint",
      "outputs": [],
      "stateMutability": "payable",
      "type": "function"
    },
    {
      "inputs": [],
      "name": "VIP",
      "outputs": [
        {
          "internalType": "uint256",
          "name": "",
          "type": "uint256"
        }
      ],
      "stateMutability": "view",
      "type": "function"
    },
    {
      "inputs": [
        {
          "internalType": "address",
          "name": "",
          "type": "address"
        }
      ],
      "name": "addressClaimedFounder",
      "outputs": [
        {
          "internalType": "uint256",
          "name": "",
          "type": "uint256"
        }
      ],
      "stateMutability": "view",
      "type": "function"
    },
    {
      "inputs": [
        {
          "internalType": "address",
          "name": "",
          "type": "address"
        }
      ],
      "name": "addressClaimedVIP",
      "outputs": [
        {
          "internalType": "uint256",
          "name": "",
          "type": "uint256"
        }
      ],
      "stateMutability": "view",
      "type": "function"
    },
    {
      "inputs": [
        {
          "internalType": "address",
          "name": "account",
          "type": "address"
        },
        {
          "internalType": "uint256",
          "name": "id",
          "type": "uint256"
        }
      ],
      "name": "balanceOf",
      "outputs": [
        {
          "internalType": "uint256",
          "name": "",
          "type": "uint256"
        }
      ],
      "stateMutability": "view",
      "type": "function"
    },
    {
      "inputs": [
        {
          "internalType": "address[]",
          "name": "accounts",
          "type": "address[]"
        },
        {
          "internalType": "uint256[]",
          "name": "ids",
          "type": "uint256[]"
        }
      ],
      "name": "balanceOfBatch",
      "outputs": [
        {
          "internalType": "uint256[]",
          "name": "",
          "type": "uint256[]"
        }
      ],
      "stateMutability": "view",
      "type": "function"
    },
    {
      "inputs": [
        {
          "internalType": "uint256",
          "name": "",
          "type": "uint256"
        }
      ],
      "name": "currentPrice",
      "outputs": [
        {
          "internalType": "uint256",
          "name": "",
          "type": "uint256"
        }
      ],
      "stateMutability": "view",
      "type": "function"
    },
    {
      "inputs": [
        {
          "internalType": "uint256",
          "name": "id",
          "type": "uint256"
        }
      ],
      "name": "exists",
      "outputs": [
        {
          "internalType": "bool",
          "name": "",
          "type": "bool"
        }
      ],
      "stateMutability": "view",
      "type": "function"
    },
    {
      "inputs": [
        {
          "internalType": "address",
          "name": "account",
          "type": "address"
        },
        {
          "internalType": "address",
          "name": "operator",
          "type": "address"
        }
      ],
      "name": "isApprovedForAll",
      "outputs": [
        {
          "internalType": "bool",
          "name": "",
          "type": "bool"
        }
      ],
      "stateMutability": "view",
      "type": "function"
    },
    {
      "inputs": [],
      "name": "maxMintAmount",
      "outputs": [
        {
          "internalType": "uint256",
          "name": "",
          "type": "uint256"
        }
      ],
      "stateMutability": "view",
      "type": "function"
    },
    {
      "inputs": [
        {
          "internalType": "uint256",
          "name": "",
          "type": "uint256"
        }
      ],
      "name": "maxSupply",
      "outputs": [
        {
          "internalType": "uint256",
          "name": "",
          "type": "uint256"
        }
      ],
      "stateMutability": "view",
      "type": "function"
    },
    {
      "inputs": [
        {
          "internalType": "address",
          "name": "account",
          "type": "address"
        },
        {
          "internalType": "uint256",
          "name": "id",
          "type": "uint256"
        },
        {
          "internalType": "uint256",
          "name": "amount",
          "type": "uint256"
        }
      ],
      "name": "mintForAddress",
      "outputs": [],
      "stateMutability": "nonpayable",
      "type": "function"
    },
    {
      "inputs": [
        {
          "internalType": "uint256",
          "name": "",
          "type": "uint256"
        }
      ],
      "name": "mintPrice",
      "outputs": [
        {
          "internalType": "uint256",
          "name": "",
          "type": "uint256"
        }
      ],
      "stateMutability": "view",
      "type": "function"
    },
    {
      "inputs": [],
      "name": "owner",
      "outputs": [
        {
          "internalType": "address",
          "name": "",
          "type": "address"
        }
      ],
      "stateMutability": "view",
      "type": "function"
    },
    {
      "inputs": [
        {
          "internalType": "uint256",
          "name": "",
          "type": "uint256"
        }
      ],
      "name": "paused",
      "outputs": [
        {
          "internalType": "bool",
          "name": "",
          "type": "bool"
        }
      ],
      "stateMutability": "view",
      "type": "function"
    },
    {
      "inputs": [
        {
          "internalType": "uint256",
          "name": "",
          "type": "uint256"
        }
      ],
      "name": "presale",
      "outputs": [
        {
          "internalType": "bool",
          "name": "",
          "type": "bool"
        }
      ],
      "stateMutability": "view",
      "type": "function"
    },
    {
      "inputs": [
        {
          "internalType": "uint256",
          "name": "",
          "type": "uint256"
        }
      ],
      "name": "presalePrice",
      "outputs": [
        {
          "internalType": "uint256",
          "name": "",
          "type": "uint256"
        }
      ],
      "stateMutability": "view",
      "type": "function"
    },
    {
      "inputs": [],
      "name": "renounceOwnership",
      "outputs": [],
      "stateMutability": "nonpayable",
      "type": "function"
    },
    {
      "inputs": [],
      "name": "royalty",
      "outputs": [
        {
          "internalType": "uint256",
          "name": "",
          "type": "uint256"
        }
      ],
      "stateMutability": "view",
      "type": "function"
    },
    {
      "inputs": [],
      "name": "royaltyAddress",
      "outputs": [
        {
          "internalType": "address",
          "name": "",
          "type": "address"
        }
      ],
      "stateMutability": "view",
      "type": "function"
    },
    {
      "inputs": [
        {
          "internalType": "address",
          "name": "from",
          "type": "address"
        },
        {
          "internalType": "address",
          "name": "to",
          "type": "address"
        },
        {
          "internalType": "uint256[]",
          "name": "ids",
          "type": "uint256[]"
        },
        {
          "internalType": "uint256[]",
          "name": "amounts",
          "type": "uint256[]"
        },
        {
          "internalType": "bytes",
          "name": "data",
          "type": "bytes"
        }
      ],
      "name": "safeBatchTransferFrom",
      "outputs": [],
      "stateMutability": "nonpayable",
      "type": "function"
    },
    {
      "inputs": [
        {
          "internalType": "address",
          "name": "from",
          "type": "address"
        },
        {
          "internalType": "address",
          "name": "to",
          "type": "address"
        },
        {
          "internalType": "uint256",
          "name": "id",
          "type": "uint256"
        },
        {
          "internalType": "uint256",
          "name": "amount",
          "type": "uint256"
        },
        {
          "internalType": "bytes",
          "name": "data",
          "type": "bytes"
        }
      ],
      "name": "safeTransferFrom",
      "outputs": [],
      "stateMutability": "nonpayable",
      "type": "function"
    },
    {
      "inputs": [
        {
          "internalType": "address",
          "name": "operator",
          "type": "address"
        },
        {
          "internalType": "bool",
          "name": "approved",
          "type": "bool"
        }
      ],
      "name": "setApprovalForAll",
      "outputs": [],
      "stateMutability": "nonpayable",
      "type": "function"
    },
    {
      "inputs": [
        {
          "internalType": "uint256",
          "name": "id",
          "type": "uint256"
        },
        {
          "internalType": "uint256",
          "name": "_amount",
          "type": "uint256"
        }
      ],
      "name": "setMaxSupply",
      "outputs": [],
      "stateMutability": "nonpayable",
      "type": "function"
    },
    {
      "inputs": [
        {
          "internalType": "uint256",
          "name": "id",
          "type": "uint256"
        },
        {
          "internalType": "uint256",
          "name": "_amount",
          "type": "uint256"
        }
      ],
      "name": "setMintPrice",
      "outputs": [],
      "stateMutability": "nonpayable",
      "type": "function"
    },
    {
      "inputs": [
        {
          "internalType": "uint256",
          "name": "id",
          "type": "uint256"
        },
        {
          "internalType": "uint256",
          "name": "_amount",
          "type": "uint256"
        }
      ],
      "name": "setPresalePrice",
      "outputs": [],
      "stateMutability": "nonpayable",
      "type": "function"
    },
    {
      "inputs": [
        {
          "internalType": "address",
          "name": "_royaltyAddress",
          "type": "address"
        }
      ],
      "name": "setRoyaltyAddress",
      "outputs": [],
      "stateMutability": "nonpayable",
      "type": "function"
    },
    {
      "inputs": [
        {
          "internalType": "uint256",
          "name": "_royalty",
          "type": "uint256"
        }
      ],
      "name": "setRoyaly",
      "outputs": [],
      "stateMutability": "nonpayable",
      "type": "function"
    },
    {
      "inputs": [
        {
          "internalType": "string",
          "name": "newuri",
          "type": "string"
        }
      ],
      "name": "setURI",
      "outputs": [],
      "stateMutability": "nonpayable",
      "type": "function"
    },
    {
      "inputs": [
        {
          "internalType": "bytes4",
          "name": "interfaceId",
          "type": "bytes4"
        }
      ],
      "name": "supportsInterface",
      "outputs": [
        {
          "internalType": "bool",
          "name": "",
          "type": "bool"
        }
      ],
      "stateMutability": "view",
      "type": "function"
    },
    {
      "inputs": [
        {
          "internalType": "uint256",
          "name": "id",
          "type": "uint256"
        }
      ],
      "name": "togglePause",
      "outputs": [],
      "stateMutability": "nonpayable",
      "type": "function"
    },
    {
      "inputs": [
        {
          "internalType": "uint256",
          "name": "id",
          "type": "uint256"
        }
      ],
      "name": "togglePrivate",
      "outputs": [],
      "stateMutability": "nonpayable",
      "type": "function"
    },
    {
      "inputs": [
        {
          "internalType": "uint256",
          "name": "",
          "type": "uint256"
        }
      ],
      "name": "totSupply",
      "outputs": [
        {
          "internalType": "uint256",
          "name": "",
          "type": "uint256"
        }
      ],
      "stateMutability": "view",
      "type": "function"
    },
    {
      "inputs": [
        {
          "internalType": "uint256",
          "name": "id",
          "type": "uint256"
        }
      ],
      "name": "totalSupply",
      "outputs": [
        {
          "internalType": "uint256",
          "name": "",
          "type": "uint256"
        }
      ],
      "stateMutability": "view",
      "type": "function"
    },
    {
      "inputs": [
        {
          "internalType": "address",
          "name": "newOwner",
          "type": "address"
        }
      ],
      "name": "transferOwnership",
      "outputs": [],
      "stateMutability": "nonpayable",
      "type": "function"
    },
    {
      "inputs": [
        {
          "internalType": "uint256",
          "name": "",
          "type": "uint256"
        }
      ],
      "name": "uri",
      "outputs": [
        {
          "internalType": "string",
          "name": "",
          "type": "string"
        }
      ],
      "stateMutability": "view",
      "type": "function"
    },
    {
      "inputs": [],
      "name": "withdraw",
      "outputs": [],
      "stateMutability": "nonpayable",
      "type": "function"
    }
  ],
  "bytecode": "0x60c0604052610190608090815261064060a052620000229060069060026200072e565b506040805180820190915260328152606460208201526200004890600790600262000784565b50604080518082019091526722b1c8c1227a0000815267063eb89da4ed000060208201526200007c906008906002620007c7565b50604080518082019091526730927f74c9de00008152670905438e600100006020820152620000b0906009906002620007c7565b50604080518082019091526722b1c8c1227a0000815267063eb89da4ed00006020820152620000e490600a906002620007c7565b506002600b81905560408051808201909152600180825260208201526200010f91600c919062000810565b5060408051808201909152600080825260208201526200013490600d90600262000810565b50600e80546001600160a01b031916737b392a9e2f92ea938431beca3d7999b4b5944155179055604b600f553480156200016d57600080fd5b506040518060600160405280603f8152602001620037b2603f913962000193816200020d565b506001600455620001a4336200021f565b620001e93360006007600081548110620001c257620001c2620008c9565b9060005260206000200154604051806020016040528060008152506200027160201b60201c565b620002073360016007600181548110620001c257620001c2620008c9565b62000c62565b60026200021b828262000980565b5050565b600580546001600160a01b038381166001600160a01b0319831681179093556040519116919082907f8be0079c531659141344cd1fd0a4f28419497f9722a3daafe3b4186f6b6457e090600090a35050565b6001600160a01b038416620002d75760405162461bcd60e51b815260206004820152602160248201527f455243313135353a206d696e7420746f20746865207a65726f206164647265736044820152607360f81b60648201526084015b60405180910390fd5b33620002fd81600087620002eb8862000398565b620002f68862000398565b87620003e6565b6000848152602081815260408083206001600160a01b0389168452909152812080548592906200032f90849062000a62565b909155505060408051858152602081018590526001600160a01b0380881692600092918516917fc3d58168c5ae7397731d063d5bbf3d657854427343f4c083240f7aacaa2d0f62910160405180910390a4620003918160008787878762000409565b5050505050565b60408051600180825281830190925260609160009190602080830190803683370190505090508281600081518110620003d557620003d5620008c9565b602090810291909101015292915050565b62000401868686868686620005de60201b620017db1760201c565b505050505050565b62000428846001600160a01b03166200071f60201b620018f11760201c565b15620004015760405163f23a6e6160e01b81526001600160a01b0385169063f23a6e619062000464908990899088908890889060040162000ac6565b6020604051808303816000875af1925050508015620004a2575060408051601f3d908101601f191682019092526200049f9181019062000b0d565b60015b6200056257620004b162000b40565b806308c379a003620004f15750620004c862000b8c565b80620004d55750620004f3565b8060405162461bcd60e51b8152600401620002ce919062000c1b565b505b60405162461bcd60e51b815260206004820152603460248201527f455243313135353a207472616e7366657220746f206e6f6e204552433131353560448201527f526563656976657220696d706c656d656e7465720000000000000000000000006064820152608401620002ce565b6001600160e01b0319811663f23a6e6160e01b14620005d55760405162461bcd60e51b815260206004820152602860248201527f455243313135353a204552433131353552656365697665722072656a656374656044820152676420746f6b656e7360c01b6064820152608401620002ce565b50505050505050565b620005f98686868686866200040160201b620018e91760201c565b6001600160a01b0385166200068d5760005b83518110156200068b578281815181106200062a576200062a620008c9565b6020026020010151600360008684815181106200064b576200064b620008c9565b60200260200101518152602001908152602001600020600082825462000672919062000a62565b909155506200068390508162000c30565b90506200060b565b505b6001600160a01b038416620004015760005b8351811015620005d557828181518110620006be57620006be620008c9565b602002602001015160036000868481518110620006df57620006df620008c9565b60200260200101518152602001908152602001600020600082825462000706919062000c4c565b909155506200071790508162000c30565b90506200069f565b6001600160a01b03163b151590565b82805482825590600052602060002090810192821562000772579160200282015b8281111562000772578251829061ffff169055916020019190600101906200074f565b5062000780929150620008b2565b5090565b82805482825590600052602060002090810192821562000772579160200282015b8281111562000772578251829060ff16905591602001919060010190620007a5565b82805482825590600052602060002090810192821562000772579160200282015b828111156200077257825182906001600160401b0316905591602001919060010190620007e8565b82805482825590600052602060002090601f01602090048101928215620007725791602002820160005b838211156200087957835183826101000a81548160ff02191690831515021790555092602001926001016020816000010492830192600103026200083a565b8015620008a85782816101000a81549060ff021916905560010160208160000104928301926001030262000879565b5050620007809291505b5b80821115620007805760008155600101620008b3565b634e487b7160e01b600052603260045260246000fd5b634e487b7160e01b600052604160045260246000fd5b600181811c908216806200090a57607f821691505b6020821081036200092b57634e487b7160e01b600052602260045260246000fd5b50919050565b601f8211156200097b57600081815260208120601f850160051c810160208610156200095a5750805b601f850160051c820191505b81811015620004015782815560010162000966565b505050565b81516001600160401b038111156200099c576200099c620008df565b620009b481620009ad8454620008f5565b8462000931565b602080601f831160018114620009ec5760008415620009d35750858301515b600019600386901b1c1916600185901b17855562000401565b600085815260208120601f198616915b8281101562000a1d57888601518255948401946001909101908401620009fc565b508582101562000a3c5787850151600019600388901b60f8161c191681555b5050505050600190811b01905550565b634e487b7160e01b600052601160045260246000fd5b8082018082111562000a785762000a7862000a4c565b92915050565b6000815180845260005b8181101562000aa65760208185018101518683018201520162000a88565b506000602082860101526020601f19601f83011685010191505092915050565b6001600160a01b03868116825285166020820152604081018490526060810183905260a06080820181905260009062000b029083018462000a7e565b979650505050505050565b60006020828403121562000b2057600080fd5b81516001600160e01b03198116811462000b3957600080fd5b9392505050565b600060033d111562000b5a5760046000803e5060005160e01c5b90565b601f8201601f191681016001600160401b038111828210171562000b855762000b85620008df565b6040525050565b600060443d101562000b9b5790565b6040516003193d81016004833e81513d6001600160401b03808311602484018310171562000bcb57505050505090565b828501915081518181111562000be45750505050505090565b843d870101602082850101111562000bff5750505050505090565b62000c106020828601018762000b5d565b509095945050505050565b60208152600062000b39602083018462000a7e565b60006001820162000c455762000c4562000a4c565b5060010190565b8181038181111562000a785762000a7862000a4c565b612b408062000c726000396000f3fe6080604052600436106102235760003560e01c80634f558e7911610123578063ad2f852a116100ab578063e6a72acf1161006f578063e6a72acf14610682578063e6ab1434146106a2578063e985e9c5146106c2578063f242432a1461070b578063f2fde38b1461072b57600080fd5b8063ad2f852a146105d3578063bd85b039146105f3578063c8fa171714610620578063ca58f2d314610640578063e535920f1461065557600080fd5b8063869f7594116100f2578063869f75941461052c57806389c5e4691461054c5780638da5cb5b1461056157806391b83ca514610593578063a22cb465146105b357600080fd5b80634f558e79146104a8578063715018a6146104d757806377b7399e146104ec5780637a3c4c171461050c57600080fd5b8063239c70ae116101b15780633954d5fc116101755780633954d5fc146104065780633ccfd60b1461043357806343743570146104485780634c209b5f146104685780634e1273f41461047b57600080fd5b8063239c70ae1461037a57806329ee566c146103905780632eb2c2d6146103a657806331d84a1c146103c657806337da577c146103e657600080fd5b80630442bfa8116101f85780630442bfa8146102cd57806306d254da146102ed5780630ac3bea81461030d5780630e89341c1461032d5780631875d21a1461035a57600080fd5b8062dde10e14610228578062fdd58e1461025d57806301ffc9a71461028b57806302fe5305146102ab575b600080fd5b34801561023457600080fd5b506102486102433660046120b4565b61074b565b60405190151581526020015b60405180910390f35b34801561026957600080fd5b5061027d6102783660046120e9565b61077f565b604051908152602001610254565b34801561029757600080fd5b506102486102a6366004612129565b610819565b3480156102b757600080fd5b506102cb6102c63660046121ee565b610869565b005b3480156102d957600080fd5b506102cb6102e836600461223f565b61089f565b3480156102f957600080fd5b506102cb610308366004612261565b610947565b34801561031957600080fd5b5061027d6103283660046120b4565b610993565b34801561033957600080fd5b5061034d6103483660046120b4565b6109b4565b60405161025491906122c2565b34801561036657600080fd5b5061027d6103753660046120b4565b610a48565b34801561038657600080fd5b5061027d600b5481565b34801561039c57600080fd5b5061027d600f5481565b3480156103b257600080fd5b506102cb6103c136600461238a565b610a58565b3480156103d257600080fd5b506102cb6103e1366004612434565b610aef565b3480156103f257600080fd5b506102cb61040136600461223f565b610d0b565b34801561041257600080fd5b5061027d610421366004612261565b60106020526000908152604090205481565b34801561043f57600080fd5b506102cb610d49565b34801561045457600080fd5b506102cb6104633660046120b4565b610e43565b6102cb610476366004612434565b610ee0565b34801561048757600080fd5b5061049b610496366004612467565b611325565b604051610254919061256d565b3480156104b457600080fd5b506102486104c33660046120b4565b600090815260036020526040902054151590565b3480156104e357600080fd5b506102cb61144f565b3480156104f857600080fd5b506102cb6105073660046120b4565b611485565b34801561051857600080fd5b5061027d6105273660046120b4565b6114b4565b34801561053857600080fd5b5061027d6105473660046120b4565b6114c4565b34801561055857600080fd5b5061027d600181565b34801561056d57600080fd5b506005546001600160a01b03165b6040516001600160a01b039091168152602001610254565b34801561059f57600080fd5b506102cb6105ae36600461223f565b6114d4565b3480156105bf57600080fd5b506102cb6105ce366004612580565b61156c565b3480156105df57600080fd5b50600e5461057b906001600160a01b031681565b3480156105ff57600080fd5b5061027d61060e3660046120b4565b60009081526003602052604090205490565b34801561062c57600080fd5b506102cb61063b3660046120b4565b611577565b34801561064c57600080fd5b5061027d600081565b34801561066157600080fd5b5061027d610670366004612261565b60116020526000908152604090205481565b34801561068e57600080fd5b5061027d61069d3660046120b4565b61169c565b3480156106ae57600080fd5b506102486106bd3660046120b4565b6116ac565b3480156106ce57600080fd5b506102486106dd3660046125bc565b6001600160a01b03918216600090815260016020908152604080832093909416825291909152205460ff1690565b34801561071757600080fd5b506102cb6107263660046125ef565b6116bc565b34801561073757600080fd5b506102cb610746366004612261565b611743565b600d818154811061075b57600080fd5b9060005260206000209060209182820401919006915054906101000a900460ff1681565b60006001600160a01b0383166107f05760405162461bcd60e51b815260206004820152602b60248201527f455243313135353a2062616c616e636520717565727920666f7220746865207a60448201526a65726f206164647265737360a81b60648201526084015b60405180910390fd5b506000818152602081815260408083206001600160a01b03861684529091529020545b92915050565b60006001600160e01b03198216636cdb3d1360e11b148061084a57506001600160e01b031982166303a24d0760e21b145b8061081357506301ffc9a760e01b6001600160e01b0319831614610813565b6005546001600160a01b031633146108935760405162461bcd60e51b81526004016107e790612654565b61089c81611900565b50565b6005546001600160a01b031633146108c95760405162461bcd60e51b81526004016107e790612654565b80600983815481106108dd576108dd612689565b9060005260206000200181905550600c82815481106108fe576108fe612689565b90600052602060002090602091828204019190069054906101000a900460ff166109435780600a838154811061093657610936612689565b6000918252602090912001555b5050565b6005546001600160a01b031633146109715760405162461bcd60e51b81526004016107e790612654565b600e80546001600160a01b0319166001600160a01b0392909216919091179055565b600781815481106109a357600080fd5b600091825260209091200154905081565b6060600280546109c39061269f565b80601f01602080910402602001604051908101604052809291908181526020018280546109ef9061269f565b8015610a3c5780601f10610a1157610100808354040283529160200191610a3c565b820191906000526020600020905b815481529060010190602001808311610a1f57829003601f168201915b50505050509050919050565b600881815481106109a357600080fd5b6001600160a01b038516331480610a745750610a7485336106dd565b610adb5760405162461bcd60e51b815260206004820152603260248201527f455243313135353a207472616e736665722063616c6c6572206973206e6f74206044820152711bdddb995c881b9bdc88185c1c1c9bdd995960721b60648201526084016107e7565b610ae8858585858561190c565b5050505050565b6005546001600160a01b03163314610b195760405162461bcd60e51b81526004016107e790612654565b600654821115610b635760405162461bcd60e51b8152602060048201526015602482015274546f6b656e20646f65736e2774206578697374732160581b60448201526064016107e7565b60008111610bb35760405162461bcd60e51b815260206004820152601b60248201527f5175616e746974792073686f756c642062652061626f7665203021000000000060448201526064016107e7565b60068281548110610bc657610bc6612689565b906000526020600020015460078381548110610be457610be4612689565b906000526020600020015414610c285760405162461bcd60e51b8152602060048201526009602482015268536f6c64206f75742160b81b60448201526064016107e7565b60068281548110610c3b57610c3b612689565b90600052602060002001548160078481548110610c5a57610c5a612689565b9060005260206000200154610c6f91906126ef565b1115610cb75760405162461bcd60e51b815260206004820152601760248201527643616e206e6f74204d696e742074686174206d616e792160481b60448201526064016107e7565b8060078381548110610ccb57610ccb612689565b906000526020600020016000828254610ce491906126ef565b92505081905550610d0683838360405180602001604052806000815250611aef565b505050565b6005546001600160a01b03163314610d355760405162461bcd60e51b81526004016107e790612654565b806006838154811061093657610936612689565b6005546001600160a01b03163314610d735760405162461bcd60e51b81526004016107e790612654565b600260045403610dc55760405162461bcd60e51b815260206004820152601f60248201527f5265656e7472616e637947756172643a207265656e7472616e742063616c6c0060448201526064016107e7565b60026004556000610dde6005546001600160a01b031690565b6001600160a01b03164760405160006040518083038185875af1925050503d8060008114610e28576040519150601f19603f3d011682016040523d82523d6000602084013e610e2d565b606091505b5050905080610e3b57600080fd5b506001600455565b6005546001600160a01b03163314610e6d5760405162461bcd60e51b81526004016107e790612654565b600d8181548110610e8057610e80612689565b90600052602060002090602091828204019190069054906101000a900460ff1615600d8281548110610eb457610eb4612689565b90600052602060002090602091828204019190066101000a81548160ff02191690831515021790555050565b600260045403610f325760405162461bcd60e51b815260206004820152601f60248201527f5265656e7472616e637947756172643a207265656e7472616e742063616c6c0060448201526064016107e7565b6002600455600d805483908110610f4b57610f4b612689565b90600052602060002090602091828204019190069054906101000a900460ff1615610fae5760405162461bcd60e51b81526020600482015260136024820152725468652053616c65206973207061757365642160681b60448201526064016107e7565b600654821115610ff85760405162461bcd60e51b8152602060048201526015602482015274546f6b656e20646f65736e2774206578697374732160581b60448201526064016107e7565b600081116110485760405162461bcd60e51b815260206004820152601b60248201527f5175616e746974792073686f756c642062652061626f7665203021000000000060448201526064016107e7565b6006828154811061105b5761105b612689565b90600052602060002001546007838154811061107957611079612689565b9060005260206000200154106110bd5760405162461bcd60e51b8152602060048201526009602482015268536f6c64206f75742160b81b60448201526064016107e7565b600682815481106110d0576110d0612689565b906000526020600020015481600784815481106110ef576110ef612689565b906000526020600020015461110491906126ef565b111561114c5760405162461bcd60e51b815260206004820152601760248201527643616e206e6f74204d696e742074686174206d616e792160481b60448201526064016107e7565b3481600a848154811061116157611161612689565b90600052602060002001546111769190612702565b11156111c45760405162461bcd60e51b815260206004820152601760248201527f4e6f7420656e6f756768206574686572732073656e742100000000000000000060448201526064016107e7565b8160000361124a57600b54336000908152601160205260409020546111ea9083906126ef565b11156112085760405162461bcd60e51b81526004016107e790612721565b6001600160a01b03831660009081526011602052604090205461122c9082906126ef565b6001600160a01b0384166000908152601160205260409020556112cc565b816001036112cc57600b54336000908152601060205260409020546112709083906126ef565b111561128e5760405162461bcd60e51b81526004016107e790612721565b6001600160a01b0383166000908152601060205260409020546112b29082906126ef565b6001600160a01b0384166000908152601060205260409020555b80600783815481106112e0576112e0612689565b9060005260206000200160008282546112f991906126ef565b9250508190555061131b83838360405180602001604052806000815250611aef565b5050600160045550565b6060815183511461138a5760405162461bcd60e51b815260206004820152602960248201527f455243313135353a206163636f756e747320616e6420696473206c656e677468604482015268040dad2e6dac2e8c6d60bb1b60648201526084016107e7565b6000835167ffffffffffffffff8111156113a6576113a661214d565b6040519080825280602002602001820160405280156113cf578160200160208202803683370190505b50905060005b84518110156114475761141a8582815181106113f3576113f3612689565b602002602001015185838151811061140d5761140d612689565b602002602001015161077f565b82828151811061142c5761142c612689565b60209081029190910101526114408161276d565b90506113d5565b509392505050565b6005546001600160a01b031633146114795760405162461bcd60e51b81526004016107e790612654565b6114836000611bff565b565b6005546001600160a01b031633146114af5760405162461bcd60e51b81526004016107e790612654565b600f55565b600a81815481106109a357600080fd5b600681815481106109a357600080fd5b6005546001600160a01b031633146114fe5760405162461bcd60e51b81526004016107e790612654565b806008838154811061151257611512612689565b9060005260206000200181905550600c828154811061153357611533612689565b90600052602060002090602091828204019190069054906101000a900460ff16156109435780600a838154811061093657610936612689565b610943338383611c51565b6005546001600160a01b031633146115a15760405162461bcd60e51b81526004016107e790612654565b600c81815481106115b4576115b4612689565b90600052602060002090602091828204019190069054906101000a900460ff1615600c82815481106115e8576115e8612689565b90600052602060002090602091828204019190066101000a81548160ff021916908315150217905550600c818154811061162457611624612689565b90600052602060002090602091828204019190069054906101000a900460ff1615611689576008818154811061165c5761165c612689565b9060005260206000200154600a828154811061167a5761167a612689565b60009182526020909120015550565b6009818154811061165c5761165c612689565b600981815481106109a357600080fd5b600c818154811061075b57600080fd5b6001600160a01b0385163314806116d857506116d885336106dd565b6117365760405162461bcd60e51b815260206004820152602960248201527f455243313135353a2063616c6c6572206973206e6f74206f776e6572206e6f7260448201526808185c1c1c9bdd995960ba1b60648201526084016107e7565b610ae88585858585611d31565b6005546001600160a01b0316331461176d5760405162461bcd60e51b81526004016107e790612654565b6001600160a01b0381166117d25760405162461bcd60e51b815260206004820152602660248201527f4f776e61626c653a206e6577206f776e657220697320746865207a65726f206160448201526564647265737360d01b60648201526084016107e7565b61089c81611bff565b6001600160a01b0385166118625760005b83518110156118605782818151811061180757611807612689565b60200260200101516003600086848151811061182557611825612689565b60200260200101518152602001908152602001600020600082825461184a91906126ef565b9091555061185990508161276d565b90506117ec565b505b6001600160a01b0384166118e95760005b83518110156118e75782818151811061188e5761188e612689565b6020026020010151600360008684815181106118ac576118ac612689565b6020026020010151815260200190815260200160002060008282546118d19190612786565b909155506118e090508161276d565b9050611873565b505b505050505050565b6001600160a01b03163b151590565b600261094382826127df565b815183511461196e5760405162461bcd60e51b815260206004820152602860248201527f455243313135353a2069647320616e6420616d6f756e7473206c656e677468206044820152670dad2e6dac2e8c6d60c31b60648201526084016107e7565b6001600160a01b0384166119945760405162461bcd60e51b81526004016107e79061289f565b336119a3818787878787611e45565b60005b8451811015611a895760008582815181106119c3576119c3612689565b6020026020010151905060008583815181106119e1576119e1612689565b602090810291909101810151600084815280835260408082206001600160a01b038e168352909352919091205490915081811015611a315760405162461bcd60e51b81526004016107e7906128e4565b6000838152602081815260408083206001600160a01b038e8116855292528083208585039055908b16825281208054849290611a6e9084906126ef565b9250508190555050505080611a829061276d565b90506119a6565b50846001600160a01b0316866001600160a01b0316826001600160a01b03167f4a39dc06d4c0dbc64b70af90fd698a233a518aa5d07e595d983b8c0526c8f7fb8787604051611ad992919061292e565b60405180910390a46118e9818787878787611e53565b6001600160a01b038416611b4f5760405162461bcd60e51b815260206004820152602160248201527f455243313135353a206d696e7420746f20746865207a65726f206164647265736044820152607360f81b60648201526084016107e7565b33611b6f81600087611b6088611fae565b611b6988611fae565b87611e45565b6000848152602081815260408083206001600160a01b038916845290915281208054859290611b9f9084906126ef565b909155505060408051858152602081018590526001600160a01b0380881692600092918516917fc3d58168c5ae7397731d063d5bbf3d657854427343f4c083240f7aacaa2d0f62910160405180910390a4610ae881600087878787611ff9565b600580546001600160a01b038381166001600160a01b0319831681179093556040519116919082907f8be0079c531659141344cd1fd0a4f28419497f9722a3daafe3b4186f6b6457e090600090a35050565b816001600160a01b0316836001600160a01b031603611cc45760405162461bcd60e51b815260206004820152602960248201527f455243313135353a2073657474696e6720617070726f76616c20737461747573604482015268103337b91039b2b63360b91b60648201526084016107e7565b6001600160a01b03838116600081815260016020908152604080832094871680845294825291829020805460ff191686151590811790915591519182527f17307eab39ab6107e8899845ad3d59bd9653f200f220920489ca2b5937696c31910160405180910390a3505050565b6001600160a01b038416611d575760405162461bcd60e51b81526004016107e79061289f565b33611d67818787611b6088611fae565b6000848152602081815260408083206001600160a01b038a16845290915290205483811015611da85760405162461bcd60e51b81526004016107e7906128e4565b6000858152602081815260408083206001600160a01b038b8116855292528083208785039055908816825281208054869290611de59084906126ef565b909155505060408051868152602081018690526001600160a01b03808916928a821692918616917fc3d58168c5ae7397731d063d5bbf3d657854427343f4c083240f7aacaa2d0f62910160405180910390a46118e7828888888888611ff9565b6118e98686868686866117db565b6001600160a01b0384163b156118e95760405163bc197c8160e01b81526001600160a01b0385169063bc197c8190611e97908990899088908890889060040161295c565b6020604051808303816000875af1925050508015611ed2575060408051601f3d908101601f19168201909252611ecf918101906129ba565b60015b611f7e57611ede6129d7565b806308c379a003611f175750611ef26129f3565b80611efd5750611f19565b8060405162461bcd60e51b81526004016107e791906122c2565b505b60405162461bcd60e51b815260206004820152603460248201527f455243313135353a207472616e7366657220746f206e6f6e20455243313135356044820152732932b1b2b4bb32b91034b6b83632b6b2b73a32b960611b60648201526084016107e7565b6001600160e01b0319811663bc197c8160e01b146118e75760405162461bcd60e51b81526004016107e790612a7d565b60408051600180825281830190925260609160009190602080830190803683370190505090508281600081518110611fe857611fe8612689565b602090810291909101015292915050565b6001600160a01b0384163b156118e95760405163f23a6e6160e01b81526001600160a01b0385169063f23a6e619061203d9089908990889088908890600401612ac5565b6020604051808303816000875af1925050508015612078575060408051601f3d908101601f19168201909252612075918101906129ba565b60015b61208457611ede6129d7565b6001600160e01b0319811663f23a6e6160e01b146118e75760405162461bcd60e51b81526004016107e790612a7d565b6000602082840312156120c657600080fd5b5035919050565b80356001600160a01b03811681146120e457600080fd5b919050565b600080604083850312156120fc57600080fd5b612105836120cd565b946020939093013593505050565b6001600160e01b03198116811461089c57600080fd5b60006020828403121561213b57600080fd5b813561214681612113565b9392505050565b634e487b7160e01b600052604160045260246000fd5b601f8201601f1916810167ffffffffffffffff811182821017156121895761218961214d565b6040525050565b600067ffffffffffffffff8311156121aa576121aa61214d565b6040516121c1601f8501601f191660200182612163565b8091508381528484840111156121d657600080fd5b83836020830137600060208583010152509392505050565b60006020828403121561220057600080fd5b813567ffffffffffffffff81111561221757600080fd5b8201601f8101841361222857600080fd5b61223784823560208401612190565b949350505050565b6000806040838503121561225257600080fd5b50508035926020909101359150565b60006020828403121561227357600080fd5b612146826120cd565b6000815180845260005b818110156122a257602081850181015186830182015201612286565b506000602082860101526020601f19601f83011685010191505092915050565b602081526000612146602083018461227c565b600067ffffffffffffffff8211156122ef576122ef61214d565b5060051b60200190565b600082601f83011261230a57600080fd5b81356020612317826122d5565b6040516123248282612163565b83815260059390931b850182019282810191508684111561234457600080fd5b8286015b8481101561235f5780358352918301918301612348565b509695505050505050565b600082601f83011261237b57600080fd5b61214683833560208501612190565b600080600080600060a086880312156123a257600080fd5b6123ab866120cd565b94506123b9602087016120cd565b9350604086013567ffffffffffffffff808211156123d657600080fd5b6123e289838a016122f9565b945060608801359150808211156123f857600080fd5b61240489838a016122f9565b9350608088013591508082111561241a57600080fd5b506124278882890161236a565b9150509295509295909350565b60008060006060848603121561244957600080fd5b612452846120cd565b95602085013595506040909401359392505050565b6000806040838503121561247a57600080fd5b823567ffffffffffffffff8082111561249257600080fd5b818501915085601f8301126124a657600080fd5b813560206124b3826122d5565b6040516124c08282612163565b83815260059390931b85018201928281019150898411156124e057600080fd5b948201945b83861015612505576124f6866120cd565b825294820194908201906124e5565b9650508601359250508082111561251b57600080fd5b50612528858286016122f9565b9150509250929050565b600081518084526020808501945080840160005b8381101561256257815187529582019590820190600101612546565b509495945050505050565b6020815260006121466020830184612532565b6000806040838503121561259357600080fd5b61259c836120cd565b9150602083013580151581146125b157600080fd5b809150509250929050565b600080604083850312156125cf57600080fd5b6125d8836120cd565b91506125e6602084016120cd565b90509250929050565b600080600080600060a0868803121561260757600080fd5b612610866120cd565b945061261e602087016120cd565b93506040860135925060608601359150608086013567ffffffffffffffff81111561264857600080fd5b6124278882890161236a565b6020808252818101527f4f776e61626c653a2063616c6c6572206973206e6f7420746865206f776e6572604082015260600190565b634e487b7160e01b600052603260045260246000fd5b600181811c908216806126b357607f821691505b6020821081036126d357634e487b7160e01b600052602260045260246000fd5b50919050565b634e487b7160e01b600052601160045260246000fd5b80820180821115610813576108136126d9565b600081600019048311821515161561271c5761271c6126d9565b500290565b6020808252602c908201527f416c7265616479204d696e746564206f72204d696e74696e67206d6f7265207460408201526b68616e20616c6c6f7765642160a01b606082015260800190565b60006001820161277f5761277f6126d9565b5060010190565b81810381811115610813576108136126d9565b601f821115610d0657600081815260208120601f850160051c810160208610156127c05750805b601f850160051c820191505b818110156118e9578281556001016127cc565b815167ffffffffffffffff8111156127f9576127f961214d565b61280d81612807845461269f565b84612799565b602080601f831160018114612842576000841561282a5750858301515b600019600386901b1c1916600185901b1785556118e9565b600085815260208120601f198616915b8281101561287157888601518255948401946001909101908401612852565b508582101561288f5787850151600019600388901b60f8161c191681555b5050505050600190811b01905550565b60208082526025908201527f455243313135353a207472616e7366657220746f20746865207a65726f206164604082015264647265737360d81b606082015260800190565b6020808252602a908201527f455243313135353a20696e73756666696369656e742062616c616e636520666f60408201526939103a3930b739b332b960b11b606082015260800190565b6040815260006129416040830185612532565b82810360208401526129538185612532565b95945050505050565b6001600160a01b0386811682528516602082015260a06040820181905260009061298890830186612532565b828103606084015261299a8186612532565b905082810360808401526129ae818561227c565b98975050505050505050565b6000602082840312156129cc57600080fd5b815161214681612113565b600060033d11156129f05760046000803e5060005160e01c5b90565b600060443d1015612a015790565b6040516003193d81016004833e81513d67ffffffffffffffff8160248401118184111715612a3157505050505090565b8285019150815181811115612a495750505050505090565b843d8701016020828501011115612a635750505050505090565b612a7260208286010187612163565b509095945050505050565b60208082526028908201527f455243313135353a204552433131353552656365697665722072656a656374656040820152676420746f6b656e7360c01b606082015260800190565b6001600160a01b03868116825285166020820152604081018490526060810183905260a060808201819052600090612aff9083018461227c565b97965050505050505056fea26469706673582212204a94784ec33a9746f71c9998e5b25327be91363fb5863cccae3499ebffb2501164736f6c63430008100033697066733a2f2f516d524d4b53535446634c464759766648565677673157704c36434a6d69377a726a784267427a7777746d4750372f7b69647d2e6a736f6e",
  "linkReferences": {},
  "deployedLinkReferences": {}
}